:020000040800F2
:1000000000000220D1150008210D0008230D000872
:10001000250D0008270D0008290D0008000000002C
:100020000000000000000000000000002B0D000890
:100030002D0D0008000000002F0D0008310D0008F4
:1000400021160008211600082116000821160008B4
:1000500021160008211600082116000821160008A4
:100060002116000821160008211600082116000894
:100070002116000821160008211600082116000884
:100080002116000821160008211600082116000874
:100090002116000821160008211600082116000864
:1000A0002116000821160008211600082116000854
:1000B0002116000821160008211600082116000844
:1000C0002116000821160008211600082116000834
:1000D0002116000821160008211600082116000824
:1000E0002116000821160008211600082116000814
:1000F0002116000821160008211600082116000804
:1001000021160008211600082116000821160008F3
:1001100021160008211600082116000821160008E3
:1001200021160008211600082116000821160008D3
:100130002116000800000000000000002116000841
:1001400021160008211600082116000821160008B3
:1001500021160008211600082116000821160008A3
:100160002116000821160008211600082116000893
:1001700021160008211600082116000800000000C2
:100180000000000021160008000000000000000030
:1001900021160008000000000000000021160008E1
:1001A0000000000000000000000000002116000810
:1001B0002116000821160008211600082116000843
:0401C00021160008FC
:1001C40010B5054C237833B9044B13B10448AFF38D
:1001D40000800123237010BD1000002000000000E7
:1001E4007C16000808B5034B1BB103490348AFF361
:1001F400008008BD00000000140000207C160008E8
:1002040080F0004002E000BF81F0004142001FBFC7
:100214005FEA410392EA030F7FEA226C7FEA236CD0
:100224006AD04FEA1262D2EB1363C1BFD2184140C5
:1002340048404140B8BF5B42192B88BF704710F05B
:10024400004F40F4000020F07F4018BF404211F0FE
:10025400004F41F4000121F07F4118BF494292EA66
:10026400030F3FD0A2F1010241FA03FC10EB0C0092
:10027400C3F1200301FA03F100F0004302D549421F
:1002840060EB4000B0F5000F13D3B0F1807F06D3CC
:1002940040084FEA310102F10102FE2A51D2B1F1C4
:1002A400004F40EBC25008BF20F0010040EA0300B9
:1002B4007047490040EB0000013A28BFB0F5000F39
:1002C400EDD2B0FA80FCACF1080CB2EB0C0200FAEF
:1002D4000CF0AABF00EBC25052421843BCBFD0403E
:1002E4001843704792F0000F81F4000106BF80F4B8
:1002F40000000132013BB5E74FEA41037FEA226C7B
:1003040018BF7FEA236C21D092EA030F04D092F045
:10031400000F08BF0846704790EA010F1CBF002079
:10032400704712F07F4F04D1400028BF40F00040D6
:10033400704712F100723CBF00F50000704700F0F6
:10034400004343F0FE4040F4000070477FEA22621D
:1003540016BF08467FEA23630146420206BF5FEAEE
:10036400412390EA010F40F4800070474FF00003EE
:1003740004E000BF10F0004348BF40425FEA000CB5
:1003840008BF704743F0964301464FF000001CE05D
:1003940050EA010208BF70474FF000030AE000BFB3
:1003A40050EA010208BF704711F0004302D54042F1
:1003B40061EB41015FEA010C02BF84460146002063
:1003C40043F0B64308BFA3F18053A3F50003BCFA7E
:1003D4008CF2083AA3EBC25310DB01FA02FC63442B
:1003E40000FA02FCC2F12002BCF1004F20FA02F232
:1003F40043EB020008BF20F00100704702F1200225
:1004040001FA02FCC2F1200250EA4C0021FA02F285
:1004140043EB020008BF20EADC7070474FF0FF0C8A
:100424001CEAD0521EBF1CEAD15392EA0C0F93EA85
:100434000C0F6FD01A4480EA010C400218BF5FEA27
:1004440041211ED04FF0006343EA501043EA51119A
:10045400A0FB01310CF00040B1F5000F3EBF490094
:1004640041EAD3715B0040EA010062F17F02FD2A98
:100474001DD8B3F1004F40EBC25008BF20F001007B
:10048400704790F0000F0CF0004C08BF49024CEA92
:10049400502040EA51207F3AC2BFD2F1FF0340EA24
:1004A400C250704740F400004FF00003013A5DDC95
:1004B40012F1190FDCBF00F000407047C2F10002D6
:1004C400410021FA02F1C2F1200200FA02FC5FEAC3
:1004D400310040F1000053EA4C0308BF20EADC700D
:1004E400704792F0000F00F0004C02BF400010F47F
:1004F400000F013AF9D040EA0C0093F0000F01F02C
:10050400004C02BF490011F4000F013BF9D041EA4D
:100514000C018FE70CEAD15392EA0C0F18BF93EA4F
:100524000C0F0AD030F0004C18BF31F0004CD8D179
:1005340080EA010000F00040704790F0000F17BF00
:1005440090F0004F084691F0000F91F0004F14D046
:1005540092EA0C0F01D142020FD193EA0C0F03D19E
:100564004B0218BF084608D180EA010000F00040A1
:1005740040F0FE4040F40000704740F0FE4040F47C
:10058400400070474FF0FF0C1CEAD0521EBF1CEA1B
:10059400D15392EA0C0F93EA0C0F69D0A2EB030239
:1005A40080EA010C49024FEA402037D04FF08053D3
:1005B40043EA111143EA10130CF000408B4238BF98
:1005C4005B0042F17D024FF4000C8B4224BF5B1AA6
:1005D40040EA0C00B3EB510F24BFA3EB510340EAF4
:1005E4005C00B3EB910F24BFA3EB910340EA9C00A2
:1005F400B3EBD10F24BFA3EBD10340EADC001B0112
:1006040018BF5FEA1C1CE0D1FD2A3FF650AF8B42B5
:1006140040EBC25008BF20F0010070470CF0004CC2
:100624004CEA50207F32C2BFD2F1FF0340EAC250ED
:10063400704740F400004FF00003013A37E792F0AE
:10064400000F00F0004C02BF400010F4000F013A0C
:10065400F9D040EA0C0093F0000F01F0004C02BF07
:10066400490011F4000F013BF9D041EA0C0195E770
:100674000CEAD15392EA0C0F08D142027FF47DAF09
:1006840093EA0C0F7FF470AF084676E793EA0C0FF9
:1006940004D14B023FF44CAF08466EE730F0004CF7
:1006A40018BF31F0004CCAD130F000427FF45CAF87
:1006B40031F000437FF43CAF5FE700BF4FF0FF3CF5
:1006C40006E000BF4FF0010C02E000BF4FF0010C48
:1006D4004DF804CD4FEA40024FEA41037FEA226C11
:1006E40018BF7FEA236C11D001B052EA530C18BF33
:1006F40090EA010F58BFB2EB030088BFC81738BF98
:100704006FEAE17018BF40F0010070477FEA226C85
:1007140002D15FEA402C05D17FEA236CE4D15FEA81
:10072400412CE1D05DF8040B704700BF84460846B5
:100734006146FFE70FB5FFF7C9FF002848BF10F176
:10074400000F0FBD4DF808EDFFF7F4FF0CBF0120BB
:1007540000205DF808FB00BF4DF808EDFFF7EAFF45
:1007640034BF012000205DF808FB00BF4DF808ED00
:10077400FFF7E0FF94BF012000205DF808FB00BFF5
:100784004DF808EDFFF7D2FF94BF012000205DF87B
:1007940008FB00BF4DF808EDFFF7C8FF34BF012088
:1007A40000205DF808FB00BF53B94AB9002908BF0F
:1007B40000281CBF4FF0FF314FF0FF3000F088B924
:1007C400ADF1080C6DE904CE00F006F8DDF804E0A4
:1007D400DDE9022304B070472DE9F047089D8E46F9
:1007E40004468846002B4AD18A42174662D9B2FA97
:1007F40082F64EB1C6F1200301FA06F820FA03F39B
:10080400B74043EA0808B4404FEA174E1FFA87FC82
:10081400B8FBFEF1230C0EFB118843EA084301FBED
:100824000CF29A4209D9FB1801F1FF3080F0EA80FA
:100834009A4240F2E78002393B449A1AA3B2B2FBCF
:10084400FEF00EFB102243EA024300FB0CFC9C4525
:1008540009D9FB1800F1FF3280F0D6809C4540F2A4
:10086400D3803B44023840EA0140A3EB0C0300214F
:100874001DB1F3400022C5E90032BDE8F0878B4288
:1008840005D90DB1C5E9000100210846F5E7B3FA21
:1008940083F1002946D1734502D3824200F20581D7
:1008A400841A6EEB030201209046002DE5D0C5E9C1
:1008B4000048E2E7002A00F09080B2FA82F6002EA7
:1008C40040F0A4808A1A030C4FEA174E80B2BCB2DF
:1008D4000121B2FBFEFC0EFB1C2243EA024304FB93
:1008E4000CF29A4207D9FB180CF1FF3802D29A4253
:1008F40000F2E080C4469B1AB3FBFEF20EFB1233F7
:1009040040EA034302FB04F49C4207D9FB1802F1BA
:10091400FF3002D29C4200F2CA8002461B1B42EA0C
:100924000C40A5E7C1F120068B4022FA06F71F43CD
:100934000EFA01F420FA06F32EFA06FE4FEA1749DE
:10094400234300FA01F81FFA87FCBEFBF9F01C0CE4
:1009540009FB10EE44EA0E4400FB0CFEA64502FA25
:1009640001F209D93C1900F1FF3A80F09C80A645B8
:1009740040F2998002383C44A4EB0E041FFA83FE33
:10098400B4FBF9F309FB13444EEA044403FB0CFCE7
:10099400A44508D93C1903F1FF3E80F08280A445A8
:1009A4007FD9023B3C4443EA0040A4EB0C04A0FB87
:1009B40002EC64457346E14662D35FD05DB1B8EBA7
:1009C400030264EB090404FA06F622FA01F31E4357
:1009D400CC40C5E9006400214FE7B1FBF2FC010CF7
:1009E40041EA0E4180B240EA01423B4638463C4669
:1009F400B846BE462026B1FBF7F1A2EB080241EA55
:100A04000C4166E7014618E710462CE7C6F12002C0
:100A14002EFA02F3B740B14020FA02F24FEA174E21
:100A24000A43B3FBFEF8BCB20EFB1833110C41EAC7
:100A3400034108FB04F9B04089454FEA104380B2F2
:100A44003ED9791808F1FF3C01D289451FD8A1EBA2
:100A54000901B1FBFEF909FB04F80EFB191192B26E
:100A640042EA0142424529D2BA1809F1FF31C4D2FF
:100A74004245C2D2A9F102013A44BEE7F0459DD2F3
:100A8400BEEB02036CEB070C0138E14696E7A7EBDB
:100A940009094944A8F1020CB1FBFEF909FB04F869
:100AA400DBE773467FE7504666E70846FDE63B44CE
:100AB400023A33E7ACF1020C3B441CE749469CE79D
:100AC400A1EB0901C446B1FBFEF909FB04F8C4E734
:100AD400704700BF30B595B01022002109A800F07E
:100AE4009EFD1422002102A800F099FD204B002154
:100AF40000911A6C42F080521A641B6C1D4A03F078
:100B040080530093009B0191136823F4404343F402
:100B140080431360136803F440430193019B012154
:100B24004FF480330224CDE907134FF48003CDE959
:100B34000D430F25902307A8CDE90F53CDE91144A8
:100B4400139400F0F3F908B172B6FEE704904FF481
:100B5400A0524FF48053032102A8CDE90254CDE9F9
:100B6400052300F001F908B172B6FEE715B030BDF7
:100B740000380240007000402DE9F04F87B0CDE905
:100B84000001002604923546B246019B9E4264DB76
:100B94002846514607B0BDE8F08F4046FFF7EAFB10
:100BA40004460098FFF7E6FB01462046FFF7EAFCFF
:100BB4002B49FFF733FC2B49FFF726FB0290304605
:100BC400FFF7D8FB04460198FFF7D4FB0146204603
:100BD400FFF7D8FC0146FFF719FB4FF07E51FFF7F2
:100BE40013FB002703900024BB46049B9C4209DBB3
:100BF40065194AEBE47A08F10108009B9845CCDBBF
:100C04000136C2E759465846FFF708FC3946814683
:100C14003846FFF703FC014605904846FFF7F6FA0D
:100C24004FF08141FFF7A2FD059B0028E0D0194653
:100C34004846FFF7E9FA0299FFF7E8FA5946814670
:100C44005846FFF7E3FA3946FFF7E8FB0399FFF745
:100C5400DDFA01340746CB46C7E74FF00008CCE77E
:100C6400000060400000204000B589B000F080FC26
:100C7400FFF730FF1422002103A800F0D0FC002469
:100C8400234B00941A6B234842F004021A631A6B34
:100C940002F004020092009A01941A6B42F080025E
:100CA4001A631A6B02F080020192019A02941A6B81
:100CB40042F002021A631B6B03F002032246029302
:100CC400FF210125029B00F0D1FBFF23114803A95A
:100CD400CDE90335CDE9054400F0F6FA0D482A467E
:100CE400294600F0C3FB4FF4807164220846FFF7E5
:100CF40043FF094B2246C3E900010648294600F098
:100D0400B5FB04482A46022100F0B0FBFEE700BF11
:100D1400003802400004024030000020FEE7FEE7F5
:100D2400FEE7FEE7FEE770477047704700F03ABC05
:100D340082B00C4B002100915A6C42F480425A64F8
:100D44005A6C02F480420092009A01911A6C42F0AB
:100D540080521A641B6C03F080530193019B02B010
:100D6400704700BF003802402DE9F0410D460446AB
:100D740010B90120BDE8F081434B1A6802F00F025C
:100D84008A4228D321688F072DD4C80740D43E4B0C
:100D94001A6802F00F02AA4265D8226851076BD480
:100DA400130707D5394A2169936823F4604343EA5A
:100DB400C103936000F072F8344B354A9B68C3F367
:100DC4000313D35CD840334B1860334B186800F0DE
:100DD400ABFB0020CEE7CAB21A701B6803F00F0306
:100DE4008B42C6D1CEE7294B11F0040F1EBF9A687F
:100DF40042F4E0529A600E0742BF9A6842F460429D
:100E04009A609A68A06822F0F00202439A60BCE7F4
:100E140062681E4B012A1CD11B6813F4003FA8D042
:100E24001A4EB36823F003031343B36000F0C6FB08
:100E340041F288380746B368626803F00C03B3EBE9
:100E4400820FA4D000F0BAFBC01B4045F3D90320A5
:100E540090E7911E01291B6802D813F0007FDEE79A
:100E640013F0020FDBE7EAB21A701B6803F00F03FA
:100E7400AB427FF47EAF90E70449E0688B6823F4CB
:100E8400E05303438B608BE7003C02400038024090
:100E9400941600080800002004000020204908B52A
:100EA4008B6803F00C03082B07D00C2B20D01D48B3
:100EB4001D4A042B18BF104608BD4A684B68496890
:100EC40013F4800314BF17481748C1F3881118BFDF
:100ED400002302F03F02A1FB0001FFF765FC104B69
:100EE4005B68C3F3014301335B00B0FBF3F0E3E75A
:100EF4004A684B68496813F4800314BF09480A48D8
:100F0400C1F3881118BF002302F03F02A1FB0001C6
:100F1400FFF74AFC024B5B68C3F30273E5E700BFCB
:100F24000038024040787D010024F4002DE9F341AB
:100F34000446002831D00368DF0710D423689E07D5
:100F440067D42368190700F1B28023685A0700F1B7
:100F5400D280A369002B40F03981002034E0984B03
:100F64009A6802F00C02042A10D09A6802F00C026B
:100F7400082A02D15B685D0208D4914B9A6802F09A
:100F84000C020C2A0BD15A68510208D58C4B1B68F1
:100F94009A03D3D56368002BD0D1012014E0626892
:100FA400B2F5803F13D11A6842F480321A6000F01F
:100FB40005FB834E054633689B03BFD400F0FEFA5D
:100FC400401B6428F7D9032002B0BDE8F0817C4DB2
:100FD400B2F5A02F2B6807D143F480232B602B6834
:100FE40043F480332B60E2E723F480332B602B68D7
:100FF40023F480232B60002AD9D100F0DFFA0646BF
:101004002B689F039AD500F0D9FA801B6428F7D97E
:10101400D9E76B4B9A6812F00C0F10D09A6802F063
:101024000C02082A02D15B685E0208D5644A936800
:1010340003F00C030C2B11D153685D020ED4604AEB
:101044001368990702D5E368012BA6D113682169B7
:1010540023F0F80343EAC103136072E7E268594BD3
:10106400B2B101221A6000F0A9FA554D06462B6868
:101074009B0707D52B68226923F0F80343EAC203D0
:101084002B605EE700F09AFA801B0228EFD99AE7FA
:101094001A6000F093FA4A4E054633689F077FF5BD
:1010A40050AF00F08BFA401B0228F6D98BE7626937
:1010B400444B82B10122C3F8802E00F07FFA404EE7
:1010C4000546736F9B073FF540AF00F077FA401B6E
:1010D4000228F6D977E7C3F8802E00F06FFA384E6D
:1010E4000546736F9F077FF530AF00F067FA401B2A
:1010F4000228F6D967E7324B1A6C12F0805228D1D5
:1011040001921A6C42F080521A641B6C03F08053F3
:101114000193019B01272C4D2B68D8051BD5A3688F
:10112400274D012B27D12B6F43F001032B6700F0D0
:1011340045FA234E054641F28838336F9A0739D56C
:10114400002F3FF406AF1E4A136C23F08053136440
:10115400FFE60027DFE72B6843F480732B6000F081
:101164002DFA06462B68D905D9D400F027FA801B3E
:101174000228F7D927E7052B04D12B6F43F004038A
:101184002B67D0E72A6F22F001022A672A6F22F028
:1011940004022A67002BCAD100F010FA41F2883801
:1011A40006462B6F9B07CBD500F008FA801B404501
:1011B400F7D908E700F002FA401B4045BDD902E721
:1011C4000038024000004742007000403C4DAA68CD
:1011D40002F00C02082A41D0022B3A4B4FF00002D5
:1011E4001A662ED100F0EAF906462B68990122D43A
:1011F400D4E907321343626A43EA8213E26A43EA98
:101204000263226B43EA0273A26A5208013A43EA78
:1012140002436B602B4B2A4D01221A6600F0CEF973
:1012240004462B689A013FF598AE00F0C7F9001BFD
:101234000228F6D9C7E600F0C1F9801B0228D4D9E8
:10124400C1E600F0BBF904462B689B017FF585AE2F
:1012540000F0B4F9001B0228F6D9B4E6012B3FF4E0
:101264009CAE6B68E26903F4800191427FF495AE11
:10127400216A03F03F028A427FF48FAE616A47F627
:10128400C0721A40B2EB811F7FF487AEA26A520883
:1012940003F44031013AB1EB024F7FF47EAEE16AD0
:1012A40003F07062B2EB016F7FF477AE226B03F050
:1012B400E043B3EB027F14BF0120002084E600BFAB
:1012C40000380240000047422DE9F74FDFF89091C3
:1012D400644A00230D6801249C4004EA0506AC43DB
:1012E40040F0AB804D68032705F003044FEA430840
:1012F40007FA08FC671E012F6FEA0C0C34D88768C4
:1013040007EA0C0ECF6807FA08F747EA0E0787606A
:10131400476827EA060EC5F300179F4047EA0E0701
:101324004760C76807EA0C0E8F6807FA08F747EAB0
:101334000E07022CC76019D14FEAD30A00EB8A0AC0
:1013440003F0070BDAF820704FEA8B0B4FF00F0E07
:101354000EFA0BFE27EA0E0E0F6907FA0BF747EA9F
:101364000E07CAF8207001E0032CDAD1076804FAEA
:1013740008F407EA0C073C4315F4403F04605CD0D2
:1013840000240194D9F8444044F48044C9F844400A
:10139400D9F8444023F0030707F1804704F480445C
:1013A40007F59C37019403F0030C019CD7F808E07F
:1013B4004FEA8C0C0F2404FA0CF42EEA040E2A4C87
:1013C400A04241D004F58064A0423FD004F580647B
:1013D400A0423DD004F58064A0423BD004F5806473
:1013E400A04239D004F58064A04237D004F580646B
:1013F400A04214BF0724062404FA0CF444EA0E04A1
:10140400BC609468F74315F4801F0CBF3C40344320
:101414009460D46815F4001F0CBF3C403443D4607E
:10142400546815F4003F0CBF3C40344354601468C6
:10143400ED0354BF3C40344314600133102B7FF45C
:1014440049AF03B0BDE8F08F0024D5E70124D3E70A
:101454000224D1E70324CFE70424CDE70524CBE716
:1014640000380240003C0140000002400AB18161A2
:1014740070470904FBE700000749CA6822F4E062E8
:101484000302120403F4E063120C134343F0BF633A
:1014940043F40033CB60704700ED00E0164B30B5E9
:1014A400DC68C4F30224C4F10703251D042B28BF00
:1014B4000423062D4FF0FF358CBF033C002405FAAE
:1014C40003F321EA0303A54022EA0502A34000280E
:1014D40043EA0203ACBF00F16040084A4FEA031339
:1014E400B8BF00F00F00DBB2AABF00F5614013548F
:1014F40080F8003330BD00BF00ED00E014ED00E0E3
:101504000138B0F1807F0BD24FF0E023054A5861D7
:10151400F02182F823100020072298611A61704795
:101524000120704700ED00E038B50E4B1A784FF4F7
:101534007A73B3FBF2F30C4A05461068B0FBF3F080
:10154400FFF7DEFF044658B90F2D09D80246294695
:101554004FF0FF30FFF7A2FF044B20461D6038BD5B
:101564000120FCE700000020080000200400002007
:1015740008B50B4B1A6842F400721A601A6842F4F8
:1015840080621A601A6842F480721A600320FFF7BE
:1015940073FF0F20FFF7C8FFFFF7CAFB002008BD49
:1015A400003C0240034A044B11681B780B4413604F
:1015B400704700BF3800002000000020014B18686D
:1015C400704700BF3800002070470000DFF834D0B7
:1015D400FFF7FAFF0C480D490D4A002302E0D458E6
:1015E400C4500433C4188C42F9D30A4A0A4C002369
:1015F40001E013600432A242FBD300F019F8FFF7B4
:1016040033FB704700000220000000200C00002083
:10161400B4160008100000203C000020FEE702443D
:101624000346934200D1704703F8011BF9E7000019
:1016340070B50D4D0D4C641BA4100026A64209D1B3
:101644000B4D0C4C00F018F8641BA4100026A642A5
:1016540005D170BD55F8043B98470136EEE755F8BF
:10166400043B98470136F2E7AC160008AC160008B4
:10167400AC160008B0160008F8B500BFF8BC08BCEA
:101684009E467047F8B500BFF8BC08BC9E4670473C
:10169400000000000000000001020304060708091E
:0816A40038F1FF7F0100000096
:0416AC00E901000848
:0416B000C501000868
:0C16B40001000000100000000024F40001
:04000005080015D109
:00000001FF
