:020000040800F2
:1000000000000220051B00085512000857120008C6
:10001000591200085B1200085D1200080000000081
:100020000000000000000000000000005F12000857
:100030006112000800000000631200086512000849
:10004000551B0008551B0008551B0008551B0008D0
:10005000551B0008551B0008551B0008551B0008C0
:10006000551B0008551B0008551B0008551B0008B0
:10007000551B0008551B0008551B0008551B0008A0
:10008000551B0008551B0008551B0008551B000890
:10009000551B0008551B0008551B0008551B000880
:1000A000551B0008551B0008551B0008551B000870
:1000B000551B0008551B0008551B0008551B000860
:1000C000551B0008551B0008551B0008551B000850
:1000D000551B0008551B0008551B0008551B000840
:1000E000551B0008551B0008551B0008551B000830
:1000F000551B0008551B0008551B0008551B000820
:10010000551B0008551B0008551B0008551B00080F
:10011000551B0008551B0008551B0008551B0008FF
:10012000551B0008551B0008551B0008551B0008EF
:10013000551B00080000000000000000551B0008CF
:10014000551B0008551B0008551B0008551B0008CF
:10015000551B0008551B0008551B0008551B0008BF
:10016000551B0008551B0008551B0008551B0008AF
:10017000551B0008551B0008551B00080000000017
:1001800000000000551B00080000000000000000F7
:10019000551B00080000000000000000551B00086F
:1001A000000000000000000000000000551B0008D7
:1001B000551B0008551B0008551B0008551B00085F
:0401C000551B0008C3
:1001C40010B5054C237833B9044B13B10448AFF38D
:1001D40000800123237010BD1000002000000000E7
:1001E400B01B000808B5034B1BB103490348AFF328
:1001F400008008BD0000000014000020B01B0008AF
:1002040081F0004102E000BF83F0004330B54FEAC3
:1002140041044FEA430594EA050F08BF90EA020F30
:100224001FBF54EA000C55EA020C7FEA645C7FEAC3
:10023400655C00F0E2804FEA5454D4EB5555B8BFE6
:100244006D420CDD2C4480EA020281EA030382EA57
:10025400000083EA010180EA020281EA0303362DE9
:1002640088BF30BD11F0004F4FEA01314FF4801CBC
:100274004CEA113102D0404261EB410113F0004FCE
:100284004FEA03334CEA133302D0524263EB430385
:1002940094EA050F00F0A780A4F10104D5F1200E23
:1002A4000DDB02FA0EFC22FA05F2801841F100017E
:1002B40003FA0EF2801843FA05F359410EE0A5F152
:1002C40020050EF1200E012A03FA0EFC28BF4CF083
:1002D400020C43FA05F3C01851EBE37101F0004539
:1002E40007D54FF0000EDCF1000C7EEB00006EEB46
:1002F4000101B1F5801F1BD3B1F5001F0CD34908D0
:100304005FEA30004FEA3C0C04F101044FEA445226
:1003140012F5800F80F09A80BCF1004F08BF5FEAAD
:10032400500C50F1000041EB045141EA050130BD8D
:100334005FEA4C0C404141EB0101013C28BFB1F59F
:10034400801FE9D291F0000F04BF01460020B1FAEA
:1003540081F308BF2033A3F10B03B3F120020CDABD
:100364000C3208DD02F1140CC2F10C0201FA0CF09B
:1003740021FA02F10CE002F11402D8BFC2F1200C00
:1003840001FA02F120FA0CFCDCBF41EA0C019040B6
:10039400E41AA2BF01EB0451294330BD6FEA0404FF
:1003A4001F3C1CDA0C340EDC04F11404C4F12002EA
:1003B40020FA04F001FA02F340EA030021FA04F3FC
:1003C40045EA030130BDC4F10C04C4F1200220FA53
:1003D40002F001FA04F340EA0300294630BD21FA91
:1003E40004F0294630BD94F0000F83F4801306BF57
:1003F40081F480110134013D4EE77FEA645C18BF4B
:100404007FEA655C29D094EA050F08BF90EA020FE1
:1004140005D054EA000C04BF1946104630BD91EAD9
:10042400030F1EBF0021002030BD5FEA545C05D1DC
:100434004000494128BF41F0004130BD14F580041B
:100444003CBF01F5801130BD01F0004545F0FE418F
:1004540041F470014FF0000030BD7FEA645C1ABFC4
:10046400194610467FEA655C1CBF0B46024650EAFB
:10047400013406BF52EA033591EA030F41F4002127
:1004840030BD00BF90F0000F04BF0021704730B5AD
:100494004FF4806404F132044FF000054FF0000182
:1004A40050E700BF90F0000F04BF0021704730B543
:1004B4004FF4806404F1320410F0004548BF404218
:1004C4004FF000013EE700BF42004FEAE2014FEA6D
:1004D40031014FEA02701FBF12F07F4393F07F4F48
:1004E40081F06051704732F07F4208BF704793F04B
:1004F4007F4F04BF41F40021704730B54FF460745E
:1005040001F0004521F000411CE700BF50EA010260
:1005140008BF704730B54FF000050AE050EA010209
:1005240008BF704730B511F0004502D5404261EB79
:1005340041014FF4806404F132045FEA915C3FF4BA
:10054400D8AE4FF003025FEADC0C18BF03325FEA57
:10055400DC0C18BF033202EBDC02C2F1200300FA08
:1005640003FC20FA02F001FA03FE40EA0E0021FA2D
:1005740002F11444BDE600BF70B54FF0FF0C4CF41B
:10058400E06C1CEA11541DBF1CEA135594EA0C0FCD
:1005940095EA0C0F00F0DEF82C4481EA030621EA08
:1005A4004C5123EA4C5350EA013518BF52EA033543
:1005B40041F4801143F4801338D0A0FB02CE4FF0F5
:1005C4000005E1FB02E506F00042E0FB03E54FF025
:1005D4000006E1FB03569CF0000F18BF4EF0010E1D
:1005E400A4F1FF04B6F5007F64F5407404D25FEA19
:1005F4004E0E6D4146EB060642EAC62141EA5551CC
:100604004FEAC52040EA5E504FEACE2EB4F1FD0C0D
:1006140088BFBCF5E06F1ED8BEF1004F08BF5FEA8B
:10062400500E50F1000041EB045170BD06F000463D
:1006340046EA010140EA020081EA0301B4EB5C04EA
:10064400C2BFD4EB0C0541EA045170BD41F48011E2
:100654004FF0000E013C00F3AB8014F1360FDEBF07
:10066400002001F0004170BDC4F10004203C35DAE3
:100674000C341BDC04F11404C4F1200500FA05F366
:1006840020FA04F001FA05F240EA020001F0004207
:1006940021F0004110EBD37021FA04F642EB06017D
:1006A4005EEA430E08BF20EAD37070BDC4F10C04A7
:1006B400C4F1200500FA04F320FA05F001FA04F26B
:1006C40040EA020001F0004110EBD37041F1000157
:1006D4005EEA430E08BF20EAD37070BDC4F1200562
:1006E40000FA05F24EEA020E20FA04F301FA05F2CA
:1006F40043EA020321FA04F001F0004121FA04F272
:1007040020EA020000EBD3705EEA430E08BF20EA41
:10071400D37070BD94F0000F0FD101F0004640007B
:1007240041EB010111F4801F08BF013CF7D041EAFD
:10073400060195F0000F18BF704703F00046520001
:1007440043EB030313F4801F08BF013DF7D043EAD2
:100754000603704794EA0C0F0CEA135518BF95EA88
:100764000C0F0CD050EA410618BF52EA4306D1D10F
:1007740081EA030101F000414FF0000070BD50EA2E
:10078400410606BF1046194652EA430619D094EAB8
:100794000C0F02D150EA013613D195EA0C0F05D1A2
:1007A40052EA03361CBF104619460AD181EA0301F6
:1007B40001F0004141F0FE4141F470014FF00000AE
:1007C40070BD41F0FE4141F4780170BD70B54FF049
:1007D400FF0C4CF4E06C1CEA11541DBF1CEA1355C9
:1007E40094EA0C0F95EA0C0F00F0A7F8A4EB0504AB
:1007F40081EA030E52EA03354FEA013100F08880A2
:100804004FEA03334FF0805545EA131343EA12636A
:100814004FEA022245EA111545EA10654FEA00261F
:100824000EF000419D4208BF964244F1FD0404F5D8
:10083400407402D25B084FEA3202B61A65EB030534
:100844005B084FEA32024FF480104FF4002CB6EBF1
:10085400020E75EB030E22BFB61A754640EA0C0071
:100864005B084FEA3202B6EB020E75EB030E22BFB1
:10087400B61A754640EA5C005B084FEA3202B6EBF2
:10088400020E75EB030E22BFB61A754640EA9C00B1
:100894005B084FEA3202B6EB020E75EB030E22BF81
:1008A400B61A754640EADC0055EA060E18D04FEA3F
:1008B400051545EA16754FEA06164FEAC30343EADF
:1008C40052734FEAC2025FEA1C1CC0D111F4801FAC
:1008D4000BD141EA00014FF000004FF0004CB6E7A5
:1008E40011F4801F04BF01430020B4F1FD0C88BF44
:1008F400BCF5E06F3FF6AFAEB5EB030C04BFB6EB4F
:10090400020C5FEA500C50F1000041EB045170BD41
:100914000EF0004E4EEA113114EB5C04C2BFD4EB6E
:100924000C0541EA045170BD41F480114FF0000EF2
:10093400013C90E645EA060E8DE60CEA135594EA6E
:100944000C0F08BF95EA0C0F3FF43BAF94EA0C0F71
:100954000AD150EA01347FF434AF95EA0C0F7FF4E6
:1009640025AF104619462CE795EA0C0F06D152EA3A
:1009740003353FF4FDAE1046194622E750EA41061E
:1009840018BF52EA43067FF4C5AE50EA41047FF42F
:100994000DAF52EA43057FF4EBAE12E77BB972B9AF
:1009A4000029BEBF00204FF0004106E008BF002828
:1009B4001CBF6FF000414FF0FF3000F009BAADF1F9
:1009C400080C6DE904CE002909DB002B1ADB00F0CA
:1009D40083F8DDF804E0DDE9022304B07047404207
:1009E40061EB4101002B1BDB00F076F8DDF804E03D
:1009F400DDE9022304B0404261EB4101524263EB62
:100A040043037047524263EB430300F065F8DDF89B
:100A140004E0DDE9022304B0404261EB4101704788
:100A2400524263EB430300F057F8DDF804E0DDE9DC
:100A3400022304B0524263EB4303704753B94AB9EB
:100A4400002908BF00281CBF4FF0FF314FF0FF30D2
:100A540000F0BEB9ADF1080C6DE904CE00F03CF82D
:100A6400DDF804E0DDE9022304B0704738B5002264
:100A7400002304460D4600F00DFA28B92046294605
:100A8400BDE8384000F00AB8204605F1004100F006
:100A940005F8404261EB410138BD00BFD0B50C4BB5
:100AA400002206460F46FFF767FD00F01BFA0446D6
:100AB400FFF7E8FC074B0022FFF75EFD02460B46FA
:100AC40030463946FFF7A0FB00F00CFA2146D0BDB2
:100AD4000000F03D0000F0412DE9F047089D8E46EE
:100AE40004468846002B4AD18A42174662D9B2FA94
:100AF40082F64EB1C6F1200301FA06F820FA03F398
:100B0400B74043EA0808B4404FEA174E1FFA87FC7F
:100B1400B8FBFEF1230C0EFB118843EA084301FBEA
:100B24000CF29A4209D9FB1801F1FF3080F0EA80F7
:100B34009A4240F2E78002393B449A1AA3B2B2FBCC
:100B4400FEF00EFB102243EA024300FB0CFC9C4522
:100B540009D9FB1800F1FF3280F0D6809C4540F2A1
:100B6400D3803B44023840EA0140A3EB0C0300214C
:100B74001DB1F3400022C5E90032BDE8F0878B4285
:100B840005D90DB1C5E9000100210846F5E7B3FA1E
:100B940083F1002946D1734502D3824200F20581D4
:100BA400841A6EEB030201209046002DE5D0C5E9BE
:100BB4000048E2E7002A00F09080B2FA82F6002EA4
:100BC40040F0A4808A1A030C4FEA174E80B2BCB2DC
:100BD4000121B2FBFEFC0EFB1C2243EA024304FB90
:100BE4000CF29A4207D9FB180CF1FF3802D29A4250
:100BF40000F2E080C4469B1AB3FBFEF20EFB1233F4
:100C040040EA034302FB04F49C4207D9FB1802F1B7
:100C1400FF3002D29C4200F2CA8002461B1B42EA09
:100C24000C40A5E7C1F120068B4022FA06F71F43CA
:100C34000EFA01F420FA06F32EFA06FE4FEA1749DB
:100C4400234300FA01F81FFA87FCBEFBF9F01C0CE1
:100C540009FB10EE44EA0E4400FB0CFEA64502FA22
:100C640001F209D93C1900F1FF3A80F09C80A645B5
:100C740040F2998002383C44A4EB0E041FFA83FE30
:100C8400B4FBF9F309FB13444EEA044403FB0CFCE4
:100C9400A44508D93C1903F1FF3E80F08280A445A5
:100CA4007FD9023B3C4443EA0040A4EB0C04A0FB84
:100CB40002EC64457346E14662D35FD05DB1B8EBA4
:100CC400030264EB090404FA06F622FA01F31E4354
:100CD400CC40C5E9006400214FE7B1FBF2FC010CF4
:100CE40041EA0E4180B240EA01423B4638463C4666
:100CF400B846BE462026B1FBF7F1A2EB080241EA52
:100D04000C4166E7014618E710462CE7C6F12002BD
:100D14002EFA02F3B740B14020FA02F24FEA174E1E
:100D24000A43B3FBFEF8BCB20EFB1833110C41EAC4
:100D3400034108FB04F9B04089454FEA104380B2EF
:100D44003ED9791808F1FF3C01D289451FD8A1EB9F
:100D54000901B1FBFEF909FB04F80EFB191192B26B
:100D640042EA0142424529D2BA1809F1FF31C4D2FC
:100D74004245C2D2A9F102013A44BEE7F0459DD2F0
:100D8400BEEB02036CEB070C0138E14696E7A7EBD8
:100D940009094944A8F1020CB1FBFEF909FB04F866
:100DA400DBE773467FE7504666E70846FDE63B44CB
:100DB400023A33E7ACF1020C3B441CE749469CE79A
:100DC400A1EB0901C446B1FBFEF909FB04F8C4E731
:100DD400704700BF4FF0FF3C06E000BF4FF0010C2E
:100DE40002E000BF4FF0010C4DF804CD4FEA410C76
:100DF4007FEA6C5C4FEA430C18BF7FEA6C5C1BD043
:100E040001B050EA410C0CBF52EA430C91EA030FC3
:100E140002BF90EA020F0020704710F1000F91EA20
:100E2400030F58BF994208BF90422CBFD8176FEAEE
:100E3400E37040F0010070474FEA410C7FEA6C5CBC
:100E440002D150EA013C07D14FEA430C7FEA6C5CC3
:100E5400D6D152EA033CD3D05DF8040B704700BFEF
:100E64008446104662468C461946634600E000BF3D
:100E740001B5FFF7B7FF002848BF10F1000F01BD0F
:100E84004DF808EDFFF7F4FF0CBF012000205DF8DA
:100E940008FB00BF4DF808EDFFF7EAFF34BF01205F
:100EA40000205DF808FB00BF4DF808EDFFF7E0FFF8
:100EB40094BF012000205DF808FB00BF4DF808ED49
:100EC400FFF7CEFF94BF012000205DF808FB00BFB0
:100ED4004DF808EDFFF7C4FF34BF012000205DF892
:100EE40008FB00BF4A0011D212F5001211D20DD531
:100EF4006FF47873B3EB62520ED44FEAC12343F01C
:100F0400004343EA505323FA02F070474FF00000C5
:100F1400704750EA013002D14FF0FF3070474FF074
:100F24000000704730B595B01022002109A800F0E8
:100F340010FE1422002102A800F00BFE204B002119
:100F440000911A6C42F080521A641B6C1D4A03F023
:100F540080530093009B0191136823F4404343F4AE
:100F640080431360136803F440430193019B012100
:100F74004FF480330224CDE907134FF48003CDE905
:100F84000D430F25902307A8CDE90F53CDE9114454
:100F9400139400F065FA08B172B6FEE704904FF4BA
:100FA400A0524FF48053032102A8CDE90254CDE9A5
:100FB400052300F073F908B172B6FEE715B030BD31
:100FC40000380240007000402DE9F04F8FB0DDE999
:100FD40018B3CDE9050108920BFB03F10193ABFBB8
:100FE4000B2303EB41039B004FF0000843EA927389
:100FF400CDE90388029393000993069B9845C0F2B8
:101004009980DDE903010FB0BDE8F08F01995846DE
:10101400FFF784FA064600980F46FFF743FA0446A2
:1010240005980D46FFF73EFA02460B462046294630
:10103400FFF7CCFB404B0022FFF79EFA3F4B002208
:10104400FFF7E2F832463B46FFF796FAFFF70EFD4C
:10105400CDE90A014046FFF725FA044606980D46F5
:10106400FFF720FA02460B4620462946FFF7AEFB5F
:1010740002460B46FFF7CAF8314B0022FFF7C4F8CB
:1010840032463B46FFF778FAFFF7F0FC0026CDE93D
:101094000C013446354630463346089A964216DAF1
:1010A40000FB03F2A0FB0079A4FB041A09EB42093C
:1010B400DDF824C0079104FB05F279180AEB420A13
:1010C40049EB0A028C45029971EB020210DA039B88
:1010D400F3180393049B43EBE6730493009B0133DF
:1010E4000093009B059A934290DB08F1010884E782
:1010F40000FB05F104FB0311A0FB040400182144C8
:10110400019B49415A46FFF749FC0C9BC4180D9BAF
:1011140043EB0105079BF81A69EB0A01019B5A4648
:10112400FFF73CFC0A9BC0180B9B06F1010643EB3E
:101134000103B2E70023D3E700000C4000000440A1
:101144000000F03F2DE9F04F8FB000F0ABFCFFF74B
:10115400E9FE1422002109A800F0FBFC0024344B12
:1011640006941A6B3348DFF8D0A0344F344E42F063
:1011740004021A631A6B02F004020692069A079498
:101184001A6B42F080021A631A6B02F08002079213
:10119400079A08941A6B42F002021A631B6B03F05D
:1011A400020322460893FF210125089B00F0F8FB67
:1011B400FF23204809A9CDE90935CDE90B4400F006
:1011C4001DFB1C482A46294600F0EAFB5AF8048B0A
:1011D4001C4D3346BB460593F5E80223CDE90223B3
:1011E40000F086FCDDE902238146CDE90023414677
:1011F40064224046FFF7E8FEEBE8020100F078FCC9
:101204004B46114AC01A059B954243F8040BE2D1A0
:101214000134052C07F1180706F10C06D6D10B4B47
:101224000448012202211A6000F0BAFBFEE700BF65
:101234000038024000040240E01B00083000002097
:10124400A8000020C81B0008E01B00082C00002098
:10125400FEE7FEE7FEE7FEE7FEE7704770477047EC
:1012640000F03ABC82B00C4B002100915A6C42F45D
:1012740080425A645A6C02F480420092009A0191AE
:101284001A6C42F080521A641B6C03F08053019371
:10129400019B02B0704700BF003802402DE9F041C5
:1012A4000D46044610B90120BDE8F081434B1A688D
:1012B40002F00F028A4228D321688F072DD4C80771
:1012C40040D43E4B1A6802F00F02AA4265D8226845
:1012D40051076BD4130707D5394A2169936823F45E
:1012E400604343EAC103936000F072F8344B354A1B
:1012F4009B68C3F30313D35CD840334B1860334B60
:10130400186800F0ABFB0020CEE7CAB21A701B6865
:1013140003F00F038B42C6D1CEE7294B11F0040F23
:101324001EBF9A6842F4E0529A600E0742BF9A6860
:1013340042F460429A609A68A06822F0F002024384
:101344009A60BCE762681E4B012A1CD11B6813F427
:10135400003FA8D01A4EB36823F003031343B360CD
:1013640000F0C6FB41F288380746B368626803F0B0
:101374000C03B3EB820FA4D000F0BAFBC01B4045B2
:10138400F3D9032090E7911E01291B6802D813F0BA
:10139400007FDEE713F0020FDBE7EAB21A701B6886
:1013A40003F00F03AB427FF47EAF90E70449E0689B
:1013B4008B6823F4E05303438B608BE7003C0240CB
:1013C40000380240F41B000808000020040000203C
:1013D400204908B58B6803F00C03082B07D00C2BAD
:1013E40020D01D481D4A042B18BF104608BD4A686A
:1013F4004B68496813F4800314BF17481748C1F3B6
:10140400881118BF002302F03F02A1FB0001FFF77F
:1014140015FB104B5B68C3F3014301335B00B0FB66
:10142400F3F0E3E74A684B68496813F4800314BF98
:1014340009480A48C1F3881118BF002302F03F028B
:10144400A1FB0001FFF7FAFA024B5B68C3F30273D6
:10145400E5E700BF0038024040787D010024F40035
:101464002DE9F3410446002831D00368DF0710D486
:1014740023689E0767D42368190700F1B2802368A4
:101484005A0700F1D280A369002B40F03981002073
:1014940034E0984B9A6802F00C02042A10D09A683F
:1014A40002F00C02082A02D15B685D0208D4914B59
:1014B4009A6802F00C020C2A0BD15A68510208D522
:1014C4008C4B1B689A03D3D56368002BD0D10120C1
:1014D40014E06268B2F5803F13D11A6842F4803296
:1014E4001A6000F005FB834E054633689B03BFD4A6
:1014F40000F0FEFA401B6428F7D9032002B0BDE8CF
:10150400F0817C4DB2F5A02F2B6807D143F48023E2
:101514002B602B6843F480332B60E2E723F48033A1
:101524002B602B6823F480232B60002AD9D100F090
:10153400DFFA06462B689F039AD500F0D9FA801B80
:101544006428F7D9D9E76B4B9A6812F00C0F10D0C6
:101554009A6802F00C02082A02D15B685E0208D580
:10156400644A936803F00C030C2B11D153685D0299
:101574000ED4604A1368990702D5E368012BA6D1FB
:101584001368216923F0F80343EAC103136072E787
:10159400E268594BB2B101221A6000F0A9FA554D24
:1015A40006462B689B0707D52B68226923F0F803AE
:1015B40043EAC2032B605EE700F09AFA801B02281C
:1015C400EFD99AE71A6000F093FA4A4E0546336859
:1015D4009F077FF550AF00F08BFA401B0228F6D925
:1015E4008BE76269444B82B10122C3F8802E00F07C
:1015F4007FFA404E0546736F9B073FF540AF00F0FE
:1016040077FA401B0228F6D977E7C3F8802E00F05A
:101614006FFA384E0546736F9F077FF530AF00F0C1
:1016240067FA401B0228F6D967E7324B1A6C12F0AE
:10163400805228D101921A6C42F080521A641B6CB9
:1016440003F080530193019B01272C4D2B68D8058F
:101654001BD5A368274D012B27D12B6F43F0010322
:101664002B6700F045FA234E054641F28838336F64
:101674009A0739D5002F3FF406AF1E4A136C23F0A6
:1016840080531364FFE60027DFE72B6843F480737D
:101694002B6000F02DFA06462B68D905D9D400F04A
:1016A40027FA801B0228F7D927E7052B04D12B6FD3
:1016B40043F004032B67D0E72A6F22F001022A6764
:1016C4002A6F22F004022A67002BCAD100F010FA14
:1016D40041F2883806462B6F9B07CBD500F008FAF9
:1016E400801B4045F7D908E700F002FA401B40454B
:1016F400BDD902E7003802400000474200700040B4
:101704003C4DAA6802F00C02082A41D0022B3A4B45
:101714004FF000021A662ED100F0EAF906462B6853
:10172400990122D4D4E907321343626A43EA82134B
:10173400E26A43EA0263226B43EA0273A26A520832
:10174400013A43EA02436B602B4B2A4D01221A668D
:1017540000F0CEF904462B689A013FF598AE00F0EC
:10176400C7F9001B0228F6D9C7E600F0C1F9801BAF
:101774000228D4D9C1E600F0BBF904462B689B01CA
:101784007FF585AE00F0B4F9001B0228F6D9B4E663
:10179400012B3FF49CAE6B68E26903F48001914233
:1017A4007FF495AE216A03F03F028A427FF48FAE44
:1017B400616A47F6C0721A40B2EB811F7FF487AEAC
:1017C400A26A520803F44031013AB1EB024F7FF4AC
:1017D4007EAEE16A03F07062B2EB016F7FF477AE24
:1017E400226B03F0E043B3EB027F14BF012000201F
:1017F40084E600BF00380240000047422DE9F74F5D
:10180400DFF89091644A00230D6801249C4004EAA7
:101814000506AC4340F0AB804D68032705F0030494
:101824004FEA430807FA08FC671E012F6FEA0C0C05
:1018340034D8876807EA0C0ECF6807FA08F747EA36
:101844000E078760476827EA060EC5F300179F4016
:1018540047EA0E074760C76807EA0C0E8F6807FA65
:1018640008F747EA0E07022CC76019D14FEAD30ADA
:1018740000EB8A0A03F0070BDAF820704FEA8B0BAF
:101884004FF00F0E0EFA0BFE27EA0E0E0F6907FA41
:101894000BF747EA0E07CAF8207001E0032CDAD1EF
:1018A400076804FA08F407EA0C073C4315F4403FC0
:1018B40004605CD000240194D9F8444044F480448A
:1018C400C9F84440D9F8444023F0030707F180479E
:1018D40004F4804407F59C37019403F0030C019C45
:1018E400D7F808E04FEA8C0C0F2404FA0CF42EEA23
:1018F400040E2A4CA04241D004F58064A0423FD09B
:1019040004F58064A0423DD004F58064A0423BD03D
:1019140004F58064A04239D004F58064A04237D035
:1019240004F58064A04214BF0724062404FA0CF4CE
:1019340044EA0E04BC609468F74315F4801F0CBF9E
:101944003C4034439460D46815F4001F0CBF3C4001
:101954003443D460546815F4003F0CBF3C40344316
:1019640054601468ED0354BF3C40344314600133A5
:10197400102B7FF449AF03B0BDE8F08F0024D5E706
:101984000124D3E70224D1E70324CFE70424CDE7DD
:101994000524CBE700380240003C0140000002402F
:1019A4000AB1816170470904FBE700000749CA686E
:1019B40022F4E0620302120403F4E063120C134302
:1019C40043F0BF6343F40033CB60704700ED00E0A5
:1019D400164B30B5DC68C4F30224C4F10703251D9B
:1019E400042B28BF0423062D4FF0FF358CBF033C86
:1019F400002405FA03F321EA0303A54022EA0502C1
:101A0400A340002843EA0203ACBF00F16040084A47
:101A14004FEA0313B8BF00F00F00DBB2AABF00F512
:101A24006140135480F8003330BD00BF00ED00E086
:101A340014ED00E00138B0F1807F0BD24FF0E023C9
:101A4400054A5861F02182F823100020072298618A
:101A54001A6170470120704700ED00E038B50E4B65
:101A64001A784FF47A73B3FBF2F30C4A0546106804
:101A7400B0FBF3F0FFF7DEFF044658B90F2D09D889
:101A8400024629464FF0FF30FFF7A2FF044B2046E1
:101A94001D6038BD0120FCE7000000200800002084
:101AA4000400002008B50B4B1A6842F400721A6057
:101AB4001A6842F480621A601A6842F480721A60EA
:101AC4000320FFF773FF0F20FFF7C8FFFFF7CAFBE0
:101AD400002008BD003C0240034A044B11681B78F7
:101AE4000B441360704700BFE40000200000002096
:101AF400014B1868704700BFE400002070470000E5
:101B0400DFF834D0FFF7FAFF0C480D490D4A0023E3
:101B140002E0D458C4500433C4188C42F9D30A4A9E
:101B24000A4C002301E013600432A242FBD300F00C
:101B340019F8FFF707FB704700000220000000209F
:101B44000C000020141C000810000020E8000020F5
:101B5400FEE702440346934200D1704703F8011B99
:101B6400F9E7000070B50D4D0D4C641BA410002660
:101B7400A64209D10B4D0C4C00F018F8641BA410BC
:101B84000026A64205D170BD55F8043B984701369E
:101B9400EEE755F8043B98470136F2E70C1C0008C1
:101BA4000C1C00080C1C0008101C0008F8B500BF31
:101BB400F8BC08BC9E467047F8B500BFF8BC08BC2A
:041BC4009E46704782
:101BC800E80300000000000040420F000000000091
:101BD800000001000000000080000000A0000000DC
:101BE800C0000000E000000000010000000000004C
:0C1BF800000000000102030406070809B9
:081C0400D8EEFF7F0100000093
:041C0C00E9010008E2
:041C1000C501000802
:0C1C140001000000100000000024F4009B
:0400000508001B05CF
:00000001FF
